:0200000490006A
:10000000F0FF0120E9820F90C57A1090C97A109014
:10001000D97A1090E97A1090F97A109000000000D7
:10002000000000000000000000000000B1D91090A6
:10003000097B10900000000051DA10900D7B1090A9
:1000400039830F9039830F9039830F9039830F9044
:1000500039830F9039830F9039830F9039830F9034
:1000600039830F9039830F9039830F9039830F9024
:1000700039830F9039830F9039830F9039830F9014
:1000800039830F9039830F9039830F9039830F9004
:1000900039830F9039830F9039830F9039830F90F4
:1000A00039830F9039830F9039830F9039830F90E4
:1000B00039830F9039830F9039830F9039830F90D4
:1000C00039830F9039830F9039830F9039830F90C4
:1000D00039830F9039830F9039830F9039830F90B4
:1000E000117B109039830F900000000039830F902E
:1000F00039830F9039830F9039830F9039830F9094
:1001000039830F9039830F9039830F9039830F9083
:1001100039830F9039830F9039830F9039830F9073
:1001200039830F9039830F9039830F9039830F9063
:1001300039830F9039830F9039830F9039830F9053
:1001400000000000000000000000000000000000AF
:1001500039830F9039830F9039830F9039830F9033
:1001600039830F9039830F9039830F9039830F9023
:1001700039830F9039830F9039830F9039830F9013
:1001800039830F9039830F9039830F9039830F9003
:1001900039830F9039830F9039830F9039830F90F3
:1001A000D16F109039830F909D7A109039830F9002
:1001B00039830F9039830F9039830F9039830F90D3
:1001C00039830F9039830F9039830F9039830F90C3
:1001D00039830F9039830F9039830F9039830F90B3
:1001E00039830F9039830F9039830F9039830F90A3
:1001F00039830F9039830F9039830F9039830F9093
:1002000039830F9039830F9039830F9039830F9082
:1002100039830F9039830F9039830F9039830F9072
:1002200039830F9039830F9039830F9000000000BD
:1002300039830F9039830F900000000039830F90AD
:1002400039830F9039830F9039830F9039830F9042
:1002500039830F9039830F9039830F9039830F9032
:1002600039830F9039830F9039830F9039830F9022
:1002700039830F9039830F9039830F90000000006D
:1002800039830F9039830F9039830F90000000005D
:080290000000000039830F900B
:100298004A020000005300B852840A003400CA0021
:1002A8000001C00E80340901DC5908800C80371128
:1002B800E750747311001D8A6222B2E9C8F10CC5B7
:1002C8008F18197E440851234393723AD6010007C8
:1002D80080CD0A038B38E9C8D02144851355F20430
:1002E8001053A1C68F61008C01B0C626000E39AD2F
:1002F8003C8C1874AA4B001C317E640891A350965C
:1003080000AEC29449D329859C3B53369C0AF4E439
:10031800D0A200DA7474A8D06604B4437D5275ABD9
:1003280036A9458B363544652B9162D29170FD0212
:10033800C843B1AB618A6331CEAC6973464E2911AB
:1003480097CE8CA91122DDC658D71E9E6A31E9477F
:10035800850C2D6E9E5AF2F1D28F9E23329C5C1131
:100368008069D94A17E71EA9D085D32B390D2244B5
:100378000D604944C65088660C0B0089EDD016798B
:100388002BE7CA9CA142B92115FE8D6891E14488EA
:100398002B593FF6DA31A49ACC1E3776DC0A20BBFB
:1003A8007893A923C68CAD9DA219E518E5321CD215
:1003B80011AE0E00FF1D811F00B4F9E69453010130
:1003C8000000000018030000007B00B85264088099
:1003D8003000DC00009110C01B007416029003A0CE
:1003E8000C803900D200D05351A2453C00E0006097
:1003F8009311C098921149E691883062448427D1BC
:10040800742423F1CCC4832101C8D4781223438BEC
:100418000A6D6A546891A1189400DAE014891100F1
:10042800001A038B387158F32642913B4D5EF4D87D
:100438005068C3A2008E6A8CA8F42A4B886861EAC7
:100448009C2931E2438611B3FAD48A50A11D9C4DF0
:100458000108894A652DD8937501DC453857E35C56
:100468008424295A44487325C3A14835222EC9D16A
:10047800224D867790CA648890A14D8A66B3F6E4C7
:100488001AB424518962D196CDE9744DD42B3829F8
:100498008ADC3B36E952002800A490F850A445D0E5
:1004A80068353E54C8502661D41D81F2B65D3BA222
:1004B800658934EB74844B95BA4CB08AB74A2719CE
:1004C80011B24DCE371723B7E85D62668D347F2FA2
:1004D800A758BCA4CDEB37ADE324FE14000C0036BE
:1004E80000E490285223488B24B9E0D448514D4168
:1004F800178116D1A6DA6DB9EDC6506F1D01D71D4B
:1005080055F419B79551C935F42073683907C06592
:100518001F02201D586EB5E59744D961B45D705D22
:100528009D955D676175541E6625A5171F55ECAD31
:10053800A5D17B119A68217D50DD97DF7E0CF507E8
:10054800C07F040A38E080010100000000000000BC
:100558000000000000000000BF7BEFBDF7DEFB33AA
:10056800EEBDF7DE3BA807CC8FEF807F31C640EDAC
:1005780081EFC59D90D21801DECFF70163E448C032
:10058800FF1E80390A608E02F8DF0318234702EF46
:10059800E7FB404A63047C2FEEC41803B507DF016C
:1005A800FFA21E303FC6BDF7DE7B8775EF00000057
:1005B80040420200009E7B03A0CE7FFC23EB1F5924
:1005C800F7867B0182901802D342480CC0BE03FF15
:1005D8009B0086416424C030F048008F07C3036045
:1005E800BBF8BB00A607CB0371EFBDC3BEF7A67D62
:1005F8006F000020EEBDAF79EF6DF3DE1B60BBF836
:10060800BB00A607CB0360C4203206C0907824182C
:10061800F7DE6DDC7B7FC6BD170000C6BD77D8F757
:10062800DEB4EFBDC030888C01300C3C12C0636270
:1006380078005C1B7F17C0E3C1F400408C0100B553
:100648000F00000000C0FCFDE4EE00F17B2B186BEE
:100658000FF895F5BFA7230FC663768AF5CA45F14B
:1006680081157E2081478204460E8A06FAFF679428
:10067800FA02806F78EE3B006277C4DCFF05B0CEEB
:100688005791FD2F80E77757E4370044FF23AE5C8E
:100698002B81B18C5CDD0538C4E2022E91C34A106F
:1006A80053A616F709F1ECF0A3DEC8EFDCF3A59E1C
:1006B800987B0D8CF95F207B4F73BF09000070EAAF
:1006C80000D4EF9CDF0000F35711F52F0044EB7BBB
:1006D8006634F83D50514BBC39125D1B52C2148C24
:1006E800992F00C08D17A48429ACF114A8A8253A25
:1006F80033F3CD1F10ADEF59F17AA303307F1551B5
:10070800FF9AF53C00EA77CE6F44C70F00E08B8E66
:10071800F8CEDD13C05335733F61BC2F207EF1EA5C
:10072800AC737F310BF845A7F2857A6D50CF9822CC
:10073800045280370E00C09B6F12219002762D283C
:100748005FAAD786E7073AEB7F7F310B00B96718B6
:10075800FD82FACE3DDF0060FD9E10CF9E00A38D86
:100768007DFFE54DC0C71DF2173E403260080020EE
:10077800D3016C2671C404CCD4517BC43F00F18AE8
:10078800FBCBFC0F00F508F33F00E80700F05BAA7D
:10079800CC85F8FD066F797EBFA11FB28A9CEAE37B
:1007A8009F7EE52115177122BEFCCB102C185FC463
:1007B8002D1FC904D5522E2ABCC04A26E23576110F
:1007C8007327D5581DE377EF7933DEB21EACBD46EB
:1007D80088EA3BBFF01BEBFE408203027807F8CDA6
:1007E8001FFC6ABC5895FF205F1D78A31E8C72E120
:1007F8009305CB0315360C1EF8CB8069820484045C
:100808000000214102A609FE3260F040850D9607DE
:100818007CB260940BDEA8827CBD01EBC90F7C55CD
:100828000D7E73C72F80A776825A790374E5077CFB
:100838005113C4F403DEC805A27CC0950314052235
:100848006D60798014012E090260000C8000B824C4
:100858004811607A806180871FD87280E5032B6217
:1008680041BC1AFCA226AC273FA8CE1BF0D44E00F0
:10087800DEFB0200008E03BC05A8D7337FE7FDFB33
:10088800BFE737C75A23E6E399313AB2F75978CF29
:100898005E8978A41DC09775E359603EF1667B07B1
:1008A800FCBD69567CF0EB85B75F803106009C7D06
:1008B80000000000000000000000FCEFBDF7A6BC2F
:1008C800F7DEFB0300FCEFBDF7A6BCF7DEFB030079
:1008D8000000000000000000505580B87701032692
:1008E800C391351E2D9F7EAC7BEFBDF707B0CE3F81
:1008F800BFC8E78B7C009C5B0033B200FE3E802CB7
:1009080013E05301F038004FC603704C80283F8035
:10091800690C80CF0750190BE0580188F201ACC868
:1009280001F0F900C68809F05301301D8027B20094
:100938008E0720CB07F0A90480B5CF3DBF09E4BFDF
:1009480047887A77C0CD78CF3DCBF83053CF10BDEC
:1009580054F19713BCFC791410C323C3013C8620BF
:10096800010800C0040000000080000016030041D8
:100978000086880C7FC0943C0A88A1386281E6C74B
:1009880033BC2B444FCFC07F449F7B96FA207657C9
:10099800887A7F00EA7B91FDFF3D3CBFFF4AACAF00
:1009A80062FE10F377DEC27C0B000000000000003E
:1009B80000000000000000000000207B9F7B7E13E9
:1009C80078F61A21EADD89E78BF1BBF73F8D839F23
:1009D800FC17F94EE3F1845F801FD79F0292F09FC6
:1009E800730008CFFB06506C005C310198A5011814
:1009F800AD26803C911F80B8192700E29FF11F00A7
:100A0800BE11DF00F0ABF80AC057BA00F4E39D004E
:100A18007AE909602CFADE7BEFBDF7FE0000C8DE3C
:100A2800E7FEBF073C7B8D90CFF70BEA8BF1BBF756
:100A3800BFD48F57FE8BECE91995BE001F15990599
:100A480024E7F9FF07905C005A2C80F1ABF8058C7D
:100A58007BEFAEF17F0090058C7BEF7EA23F00E339
:100A68005B9E07800E0700C3ECFF3F0038990F60BC
:100A780058151A58E1E6347E4576AB472FF5BBF793
:100A8800BFD40FFD9F837C7E3F00C4FFDE0100BF03
:100A98000400EA0100BC0200BC9913006AEA0B00DA
:100AA800AFE70180CEF801C0583A00E0A809009DE0
:100AB800F102C098DE04801B6301C01A7100205F38
:100AC800F1BFF7DEDBEC7B23020030EEBDF7DE7B07
:100AD8006FB3EF0D0000000000000000E0DC7BEFCA
:100AE800BDF7DE8B0080E4BBF7DE7BEF2598004C7A
:100AF80012802400B8120029D63EF7FF0D08A3473C
:100B0800C8672F4CD6FFDE2FF5A4E7DBC97343F384
:100B1800BC13E42B1E001EFE00240100BCFF1F2096
:100B2800899395C0C3FF090DE2134F4ECF37A87FB5
:100B3800FAD1CBB3EFFD8DE807BD6732E65E00B9A9
:100B48007EFFFB00E2FD772540FCA7FAFEF701FED9
:100B580023BEDF9380357C0F00AF59003CE103C012
:100B68009663FECEFDBF098FF8BD1572EE421AF5E9
:100B7800EC7BDF882F09D637987FF1C268301E15C5
:100B8800C103D83C01C0430809008F07F010FEE2FA
:100B980001B6283375C078145EF91F3C7FF143BD58
:100BA80031F6BD5FE43F60EE9962F41EFCEFBDF7DD
:100BB800DE7BEFBDF72E0020FEF7DE7BEFBDF72EC4
:100BC800B10030CD0060850F009F270198E905C06E
:100BD800A70600355C00B42C00C6F003408B094022
:100BE8009617003F3101C86505005FF801105325CD
:100BF80000335C00BC460130C30B809F7C0060ED75
:100C080073CF6F02E3DF2344BD3B1027A3CFFD4F13
:100C1800E38F997A857CA7F1B0C504CD661A409018
:100C28004C0308067F31C1CB8F597A85E8650DFCE6
:100C3800963EF7ACE886C80040FC9FFCCE3DAD7FF1
:100C4800F88DB84F88F5534B3C5682A7BC1E3660CA
:100C58008B0C0010933FE0CF18690618A578C57E65
:100C680088F98F78A92FF2BBF7BC91FFC4737B84F6
:100C7800A8FE0F10BDEFDD9DA0EE1A8CB50BF9454F
:100C88007EF7FE32BEC11B711FEA465C596642BE42
:100C9800C6586CE0E1973C4086018061060F000F62
:100CA8001B88C11866822FD0E216B52B4CF5CADF17
:100CB800BDBFEC2198FB4939FF2BFD31BEFFFDBFBD
:100CC800633000F84401C8E505306EE402A2BE9D19
:100CD80079C1BAE7F7787602B2FAFF05D6F9E717CD
:100CE800F97C91CF3AFF040000008075FEF9453E7B
:100CF8005FE4C33AFFE48B7CF8221FD6F927000093
:100D08000000000020EE5D00034C064796F168F2F3
:100D1800E90700EA07F0EC5F01EBFF0D81ECD3690E
:100D2800BCD7F8F68A987BCFF8ED27B2EF3B50F4A2
:100D38007F05287A4FE0F79F31DEF30EC8F7AE88BB
:100D4800B9F70C449F4EE3BDC0FA7F43003CFB5704
:100D5800BF7BEFBDF7DE7BEF0200BF7BEFBDF7DEA9
:100D68007BEF0200000000FCEEBDF7DE7BEFBD0B61
:100D780000FC0A00F5FB4F0029DFD309FC7F4FC4B4
:100D8800FA7F05EABB9D9EDF9E20D67FCF18EF290C
:100D980060BC7B8801D4B78718C8F5FF3D31DE53A6
:100DA8009EDFBFD3F3DB93F39558FFAF20E47B3A84
:100DB80081FAFD2700A2F7BDFF77A0EE1AE4DC4B0D
:100DC8007E91DFBD7BE8FAC2791827DC9203F2F145
:100DD800DC7D00628C014C03E0493FC0F8C9098CF6
:100DE8007FC41B20FF115F0137E22B60A6B7009775
:100DF800099004C0EF5E00000000EB6C005F8C02FD
:100E0800F8623C0010F3FBDF7BF65B0020DEFB3E64
:100E1800498CF9FB3F008C3DCDDFFFDEFB7F2BBF0C
:100E280017A0FEF9DCB712397F3BE70BE417FD0585
:100E380080B1C79CE0C45A0010271AE6180DD6FFE7
:100E4800FEBF819C31F1D310BB533E7BE2F3A73246
:100E58000BFE63EC7BCA418EE2EF8335F23F44B868
:100E6800F0181E059F5F20241CD390A88C095340BE
:100E7800C81481ED01C3824118300C10120680E9B4
:100E8800401010129006A4007F930169C0638095FA
:100E98006388C074113F039E7C480FB6F5C84F4461
:100EA800317EF152FE5819DFFD3F67FABEDFDF3FA2
:100EB800F8ACC47E229E3DBAC733D71E18158DF8EC
:100EC800CEF992F5BFFF3741C7D3000060B4F505EE
:100ED8000000CC379EFB561063FD0700E6BF62FE9C
:100EE800CEBD67774E0018BFDD9564F5FF0100BCE5
:100EF800F70E0080C50F0030830900F84BF1008021
:100F08002C3D1C00F089E7530900D3B2C2078027A3
:100F18007CA23C00387270640188F2A1D201309939
:100F2800F0A900F854C02326A0D201593EC0E1BB65
:100F3800F7DE7B4B0E1005001F58E17FEFBDF7DE93
:100F4800BB2CF01909F0131363F80118E9C3C703A0
:100F5800C0630C969100FCF899E1078091A675EFA3
:100F6800BDF7DEB3DF02408CF9FBC0BEF7DEBBCBBA
:100F7800F302307EC30C00FC28002400F027008810
:100F88004716403C3BE3857DEFBDE7CBFA17003CB5
:100F98003FB0EFBDF7FE57AC1F00D9AD160056F8AD
:100FA80001C030008000400C09800E3F00E39B72B6
:100FB80061DF7BEFDD8F7101C8E7DB0964EF73CF79
:100FC8006F05C0FB5F2344F52DE0373DFBDEF3667C
:100FD800FC1E78CBFA063177FA05395503D1E2E5DC
:100FE80047033CE1A1E400F0C888B400F8CE896466
:100FF80000101100000000000000000092014044B1
:1010080088B400F8CE0925078047868F17E0091FA6
:10101800637A26102D26DEE17D073977C617F07F23
:10102800CC7DEFFFCDFC0AC4B7E720EBFD17D6BD9A
:10103800F7DE7B760F0088B1F62F807DEFBD7B460B
:10104800ED01C078FF91270030FEB201603C5600E8
:10105800C01113008A3F000813000C0100000000B3
:10106800008600800813008A3F001C26009E320379
:1010780080FAC90688FA7E912760DF7BCFEF517B23
:1010880000885AFB1758F7DE7BEFBDF7DEFB070039
:10109800B0EFBDF7DE7BEF1F00000000000000008E
:1010A8000000B0EFBDF7DE7B170000FBDE7BEFBD75
:1010B8007701000000000000000000000000FBDED7
:1010C8007BEFBDF75E0060DD7BEFBDF7DE7BEF0FEA
:1010D80000C0BEF7DE7BEFBD3F000000000000004F
:1010E800000000C0BEF7DE7BEF1D0000EC7BEFBD0B
:1010F800F7DE010000000000000000000000000012
:10110800000000E3DDE79EDF4A407C7B8E10D57B44
:1011180081F83F9E7DEFF9327AC16FE86F10CF7F7B
:10112800E8C178D4025C5E3E1A600C458901A0FBD8
:101138008D480F00B5560C1200080000000000583A
:10114800F7DE7BEF1D01002049B0EEBD77C2F0004D
:10115800007EE20100666800205AFE0006988FFAB9
:10116800CF209FDF6324BE37F23DF7FEBFF2FC03BA
:10117800E6ED0AB2FAFF8575EF00E0DE3F000000F9
:101188000000000000000000000000000000F6BDA4
:10119800F7DE7BEFBD0000807DEFBDF7DE7B2F0023
:1011A8000000000000000000000000000000000037
:1011B80000003CF72E0000000000000000000000C6
:1011C800BCF70E0000000000000000000000000056
:1011D800000000000000000000000018230130F6A5
:1011E800FE0160F0001E319451E0198A0EDF0CB147
:1011F8007EA2195FC47BEEE9C87FA26E8F10D5FF6F
:10120800C1BA77007CF77E00D08FFA00B096F10162
:1012180060B6FC0700F58A1B008C4FFC1380F18F29
:10122800F8060079C2AF00889BFA0160FD532C00D4
:10123800BC83F800909EE1590078BE13DE01E0F906
:10124800E44F9C0078F12CF901802ED500E04BEB9F
:10125800018038E19700305E7100C07A8C0F007C05
:10126800E999EBDE0100000000000000000000002A
:101278000000000000000000000000000000000066
:10128800000000000060DF7BEFBDF7DE070058F7C5
:10129800DE0280BCF7FEE000C007F00400268009EB
:1012A800C01380F201706482BF7C00B23C408503A9
:1012B800F0F10263AA044C4F0CE0E3036638028C99
:1012C8007C4CE0930508473C30860F804A073E3146
:1012D80005804F0D2C2B0030C38F193E008832F942
:1012E8008C01005E31C7F0010063F83E3101009FB8
:1012F800B14C008019C2070060510900E0E300F812
:10130800DF5B00C6BD2FDE0000E40F00E0290020EF
:10131800BC0100A66C00D0C32C0070C30B00C6949F
:101328002F00E8611600B8E1050063CA1700F43021
:101338000B005C5E0030967C0140A75900E0F0028B
:1013480080B10400D00900700000C602C8DEE79E24
:10135800DF04D07B8D10F59E07F856D4BEF7BC1974
:10136800DF84F558BF41CC3DF4205FD5409C88E62A
:101378000B1720974A250AC09F278602E0E19F2481
:1013880000C1C405400A00000000C001408A640092
:1013980010CC4805C0C3DF230AC09FC7172E402CB6
:1013A8009572AA067C118D2EEB57C4FC971EF05B34
:1013B80051BF7BCF9BF14DA0F71A21AACF8375EFC0
:1013C800BDF7DE7B762700C4587B81EFDE7BEFF923
:1013D800327A0110CF4E9D0088970F008A0100983D
:1013E80000800080E20180E60310CF1E9E81EFDEC0
:1013F8007BEFF986F9011063ED177CF7DE7BCFEE02
:101408000100000000000000000000000000009043
:10141800BDCF3DBF05A0F71A21AACF037C2BEA77E1
:10142800EFF932BE09EBB17E453CFFF20EE2351A08
:10143800F085CB0C0D10D3187EA200FCF8191E0005
:1014480006234900A419000000002400800C0000B5
:101458004902204DC303C060F88902F0E36786069D
:1014680088690CF11A2FE00B17EB317F453CFFF22E
:101478000EF856D4EFDEF3A53581DE6B8418CC0761
:1014880090BDCF3DBB23BE1700AC7F9A3F0030F61E
:10149800181F0010FB1FBF7BEFBDF79EDD03006226
:1014A800ACFD01F7DE7BCF373C3F00E2D9A50A004F
:1014B8002E7F007848000800403100A0F90188E735
:1014C8003FAC01F7DE7BCF97D10D00791770EFBDE8
:1014D800F7910900CD05809C4601C02F3400E43205
:1014E8001E00F88506805C720140871700628A0535
:1014F800F5ED7BFFDF04E2F77B06F9BCFF81D865D9
:10150800ED7BCF9BF92F3A750F62DE8897251690F1
:101518002D1FE10128B63001B27B2BB900D67AFC29
:10152800527F0940DCE1F9FF6600E4FE867ACFEFDE
:101538000178F6BF4B7DFF02C8F53B1DF95B00C47F
:10154800BA438F672D8068BEDD9D000FB97900060C
:10155800F1A477007E6C27E2DF03F59BC63476C5DD
:10156800DAF7DE5F79FEC8DF9E23C498FB0BE3DE63
:101578007BEFBDF7DE7BEFBD77000030EEBDF7DE19
:10158800E6BBF7DE7B07000000000000000000005B
:101598000000000000000000000000000000000043
:1015A8000000000000000000000000000000C4BDB2
:1015B8002F80F7DE0100000000000000000000009E
:1015C8000000000000000000000000000000000013
:1015D800000004096010CA130025D3113FC01B7E08
:1015E8003C8FE75718DFF44C7C53FDEEBDFB313FD1
:1015F800F0FED70831D6FFC5BCF70540DFBB56580B
:1016080000789851A20054AA70F803F873A8B4009F
:101618002CF1E0110FE009133E2EE0F2832C152087
:10162800CA18E02F16A8F00356F883232610A5023F
:10163800512A008789C505A8F4C3271E008F917217
:1016480098007C3C1E7E0064F9F91903007F630E44
:101658001F00CCD0620180255400803F0E00502925
:101668000BE0DC0DB0EF0638777B0C400C238011C3
:10167800CAA68085021EFE8A016C6C605346D8405B
:101688001916B08CE0F180115E3120D2832D06FC52
:10169800E4930A8A8D41412965C39F42853F72D8E8
:1016A800B68292018F428947F16028B045B23D4425
:1016B800D9141B0C8AF2C7560C0A54B82A144A0EBD
:1016C8005B06F028DB488C541E0518324A81B23379
:1016D8005CC0A6861FD89E45018A230678228E4CB8
:1016E80080A12CC0A31480C2066C5C009B78008586
:1016F80002503C00236582EFDE17C0EFDEF60B7365
:101708000066192D7E5C209A8BA78C057E610DF8EA
:10171800C29BA8473688162F5E5EC02C35757A0A9C
:10172800E00DFD4CF90390AFF84207006BE079003B
:10173800E0C301003F3400BC298C05C098F21FDECD
:101748000470E8F18A17A0D3F358434D602CF1C315
:101758000D1DE0D28131C5073DD4049DEA614CF1ED
:10176800025E7EE186370135C56FDDFB01F0DD3BAA
:10177800577A06C0788CA96980E6E5196A0055EAA7
:10178800C1E5024DC3788C82677806E8D0F08A06F6
:10179800721A0F7398097843F3130D10AF9C333501
:1017A800002BFDDA980068191A009EA20A001C0E88
:1017B8000000000000000000000000000000000021
:1017C80058F7DE7BEFBDF7DE7BEF0300B0EEBDF729
:1017D800DE7BEFFD180F00F11307005FE804609649
:1017E8009A00648B0F006FE80060969A00648B0F74
:1017F8000027FC0280353C0F00E3953F00DCF00633
:10180800003DCC02604CF902E08417009D5601505F
:101818004B36002E79EFBDF7DE7BEFFD0100FCEFC4
:10182800BDF705C87B5F0000000000000000000055
:101838000000000000000000F2DE1718F73E00C6A6
:101848007000F8540258E10110E503E0C80250E9BD
:1018580000F0A90030C504108F1F00D718009EF4AF
:1018680001F058007C6202C8F207E0AF12C00C1FFA
:1018780000CB03C0270BC0180E003F4F0098610231
:1018880088F2F9DF7BEF0BFCEF0500000000000099
:101898000000000000000000000000C0FF5E00F033
:1018A800DD17106505F08698C0943E30238E7CE0E5
:1018B800B3C6E3450D9FD7185C358CE195E5E25535
:1018C800F9938527E3BBF7DE7BEFBDF7DEBB0000AE
:1018D800DFBD0B5FE9C2AF7C895FE583F1EE7BFF7B
:1018E800EF00EF9E839C7BE19D9E7DEF1EBAC4F4C2
:1018F8007C83F10F87EF6B108F259E270112EADD9D
:10190800E7DE5B10BFDF1C01F095E777EEBD855180
:10191800E65701283E0010C042F0803930C33B1919
:10192800EF0BFE11EFBD7B5691C65D29EAFB6DD624
:10193800FFFE010000000000000000000000F0FCB5
:10194800CEFDBF09BC5F859CBB20E7FADFFB467C68
:1019580009DDC9FC8B17B9C0785400702900260925
:10196800400200002001C04302B0297281F1788250
:10197800E837997FD178E6FCDFFB467C897C7F15C8
:1019880072EE02E6EFDCF37B40ECB742D4F70BFCD7
:1019980047F4B967A98F1E7E2B44B77A4CF580159A
:1019A800EE081B306B3C0C40FFDE60010000040BAE
:1019B800808704E41823FC0167B7A91EF00C470FC1
:1019C800BF1562FDD4C37F449F7B3AEA87D86F85F1
:1019D800787E3F00F0BF7F0000000000000000009C
:1019E8000040F4FF9EDF038CBB52D4F741FC23DE9A
:1019F80073FFEB49FCC23743F68B285560264FF836
:101A080003307800400200002001183C003C6103CC
:101A180010CB5360253A7C336437C43FE23DF7BFAF
:101A2800AA60DC95A2BE5F00F53BF7FF15F0FB55F9
:101A3800C8E7F7C2AFF4B9FFC75CACD22BE457DEF6
:101A4800F01A0B5CB12AFC800A7B3000431C7EF73D
:101A5800DE7BEF4D130038FCEFBDF7DE7BEF3F99DF
:101A680000543800C4F23CC0B753A7AF93FA3D39CD
:101A7800C51ED6FFDE5FC557C4FE9E14A36F01CFF7
:101A8800EFDC7F407F1512C632F6BD818F33804769
:101A98002620000078EE4D79EF1D00F0DC9BF2DE89
:101AA8003B000000000000000000000000000000F3
:101AB80000000010FDBFE737BDF7CFB82B45BDBF0D
:101AC80044FC23FADCD34FA1C36F85583F58C603A3
:101AD8009EA4C20F806400102C0000806001F030CA
:101AE8000018E10780653CE04974FAAD10EB077116
:101AF80022FADCD34FC2B82B45BD3F20FA7FCF6F07
:101B0800224840A647DE05349FCAFE06E37B3CC355
:101B1800EC78F6BDFBF17C58BB47C8E7F7F1BB177B
:101B28000000000000000000000000F2FDDFF37B71
:101B380040ED99A2BE05DFB3EFFDA54ED46F502F3F
:101B48000F7EA0F823000200000000000000000043
:101B580000000000000080F77EA627A68AF7FE0096
:101B6800FCEF1F00000000000000E0779A513119D7
:101B78001513BFD300807B7F000000000000000029
:101B880000000000000816FF7B5BCE14CF8D7B7F22
:101B9800000000000000000000000000803AF71F6D
:101BA80000E38BBC0118FF889380FC47FC07206F7B
:101BB800C43700715317C0977A0254F103C0305EDE
:101BC800006B0FF3018C76C22F8145FEC401E099AA
:101BD8004603F00EAB0038E10B00F9139FDFBD00A0
:101BE80000000000000000C4BDCBFC9DFBEF20FB03
:101BF8007FCF5EC0DD6F855C3B6BAF14A33758F1B8
:101C0800BBF73FE5F9F277EF7E8C05B18B7CCBF023
:101C18002FC6973E5801FECC004B0260F007060124
:101C280000000000000000000000000000000000AC
:101C380000000000000000000000000000F0BB7F72
:101C4800F9FEEFF93DA0F64C51DFC2F89E7DEF2F6B
:101C58007512F51BD4CB831F28FE088000000000F6
:101C680000000000000000000000000000E6EFDCBB
:101C7800F39B40EEB742D4BB137147F4B9A763DCBA
:101C8800A0D36F85583FD9627A1EF03C662C0EE0CF
:101C9800B02E0FE0E12601080600200940322E0F81
:101CA80060718B03B8AC7C3C059EC70CBFF4AD10CB
:101CB800EB279BB823FADCD3316E20F75B21EADDF2
:101CC800C9FFBE9EDFB9FF3741FEBE0A3977413DE5
:101CD8007DEEE9882FE1B742AC9F68E4039EA1023C
:101CE800804F3C003C24000800008045003048003C
:101CF8007EA2C8073C43C16F85583FD1C8A7CF3DD6
:101D08001DF125FCDE0A397701F377EEFF4D00005F
:101D180000000000000000C8F77FCFEFF1BB3F6A6A
:101D2800CF14F5FD26C617F19EFB5F95E8F0CD9020
:101D3800FD22CB5360A2B8001C1600C100000008A9
:101D480006007F16008B0B4096A7C084377C33644F
:101D5800BF905FC47BEE7F15A83D53D4F703F2FD17
:101D6800DFF37B000000000000000000B8F7D5FF9B
:101D7800DB8CBD52F0C477EF4BDC073C0900000058
:101D88000000000000000000787EE79EDF82F87DFA
:101D980015A2FA9FFC4A9F7B96BCF23157885EF2E7
:101DA8000936F8F80707E4BD9D8FDA3301DF8AF1B9
:101DB800FECFFB80BE5D11F3DB0362FDCE9E31FEDC
:101DC800191130DE9FF87DE7020FB9C50449AED47A
:101DD8002BA8C3E766F4B9F737E21DF2FF5688B1BE
:101DE800F684FFFD03000000BF7B53DEFB03F0BB5E
:101DF80037E5BD3F0000000000000000000008803B
:101E08004796C0177E77637C25E6EFFE01F7FE0054
:101E180000000000000000000000000000000008B2
:101E280009C09F020B4F7807E36D64CB7DEF9E4F8F
:101E380062FE2A447D1FE2DE17F0BB479405781442
:101E4800471478C2E1097F7045A12C50161C315007
:101E5800E1834A1FFE7280476179809F1C46F880A3
:101E6800913E9F91804F293F8047AE34017278554B
:101E780000F8843F002BC402201E15C0B91FF0BB18
:101E88001FF0BB7F4A8128053C8A2D06145130C2B9
:101E9800665170F187A2886143990AB60A940715BA
:101EA800D991038F0D3F31F8AB78FC18A16084A25B
:101EB800FCFD15250728DBC828CB485B01DBE36759
:101EC80011C3E3B18125AA6CFCEC11F100319C111E
:101ED8000F1EF5F300FC3C1EC861DA00853FF809C7
:101EE800053082058A1C00CA08305201FF7B06981B
:101EF800F77E1CD1102D7E8CA51E74E840A7664C79
:101F080035C12B5B8B0FA86976E900BC194B4D00D6
:101F18002FF10290440088C601F045BCB201B3BC61
:101F2800F331078836965FC4055F68A28DC62CB367
:101F3800308739448B06575C7DEF03D4BDFDE3023F
:101F48007F7E63286019C34F3C30C28FC9851F0F3D
:101F5800510A1E9538E261A43F3CE1502C509EF096
:101F680053018EA81C0E50E93CE2013C9E9F02F8EA
:101F780089E1008C4114801F0B80E203E09103800B
:101F8800CF03C0183E00753C09F8DF5F8E1FC014F0
:101F9800F31F80F7DE7BEFBDF7DEBB0020DE7BEFB3
:101FA800BDF7FE1813109F38005FE804ACF24CC070
:101FB80078E50FE0863700EFB00A50D368407CE23E
:101FC800007CA113B0CA3301E3951F4087BCF7DE3C
:101FD8007BEFFD0300C0F37B40FCBE4AF055EC05E7
:101FE8004FF90D70C4033C1E4000000000020806B3
:101FF800506CF0FCE483B85F8C0B00C4FD625CE0BD
:10200800F9C9072836100C000100008000F078009C
:10201800473CC0537E03F82AF602F1FB2AD7FD019C
:1020280000000000000000003CBF0790F5FD02AC76
:102038005FD407D44F3DC0132EE0B1002400000048
:10204800004800970798A90BB895BF1B3000FC2BD8
:10205800BE1B7886DF03360F90000000000012F0E8
:1020680058C00C1754AB07FA17F503FFFAFD00E246
:10207800FDDFFF9B40BF69DC9972EE05B92637C6C4
:10208800FFEE8AFE0DF9AACCE1A6F1EBA87DFF953B
:10209800AFD13D60ED9972EEE4BBAF784CF1987C1E
:1020A800F70580DFFD0100600200001300008004D6
:1020B8008C9100C4DE3F0000000088DECCDF03C640
:1020C8005D89FA7EC87FC47BEE7FAA8F37E23F43E3
:1020D800BED333B2AC019A2AFE40AC199707D0EFB1
:1020E800440000002000B83C80882836E09E37CBAA
:1020F8004CB0C2F646EC87ECF694FC22BE7BFF4B54
:102108007DA8BB12F5FD40F466FE1E0000000088A5
:10211800EE3F00E3FDDFB33B00BD678AB1EE006B25
:10212800A9FF3D1DF10FC46BFC52AC574CACF081BC
:10213800C5C6E5019E4A2080EFF7020100000007AE
:1021480000FC6FB3EFBD170000F8DF97EFDE7B01EF
:1021580006000009000000830080CB03805CC600F5
:10216800E0FF0FE3DE7BEFBDF7DE07008004001120
:102178007C7B307FE79EDF0AF1FFC77CE2BFFE6F02
:1021880085A8BEEB3FC66F3EA233DF73CF37A28769
:10219800F1F315CF7F8678F622FFC1A33E403FC6F4
:1021A800608506F08BF8F15303402C8B6103608B3C
:1021B8000C120093000040900098846103608BF437
:1021C8005303402C8B152E805FC48F48E303F443E0
:1021D800C83D78FE33C4B317F11F73A82FF23DF73B
:1021E8007C23DE47547DF57BCE5B21AAEFFC9EB5B0
:1021F800D40FF377EEF9ADE06BE3DE3F00FF7BC76A
:10220800987201AC34870E6F00F1CA265ABCC01B05
:102218003A30CB4CC8A91ED0110D1DF102637A06C5
:10222800E33113D0A969D9005A55951780A7747B53
:102238000A70EFBD650CCFBDF7020000F7DE7B9B8F
:10224800EFDE7B2F000070EFBDB7F9EEBDF702009F
:1022580000F7DE7B9BEFDE7B2F0000000000000014
:102268000000FFFB07000000FEF70FFCEF1F000057
:102278000080F5FBDFFBFF4DA04E5792F5FE07EA05
:1022880017F9FEEFDD4BFE93167726A35BB4182AE9
:102298008135140C80122342017CDF9796FC0D20B7
:1022A8009F27BC43EDBD06404C8CDEFF7780FF13B3
:1022B800FD3D21E7FE256BE8F57CE7F784DA653319
:1022C800A1BE3DC507807CA7789204F8C88F93808B
:1022D800C058C67E077818FACB98FBFF0EF355C591
:1022E800F3FF2A72EEFBC6FC81E7777E33880BA0EA
:1022F800DEF346BCA59E02CC3F477F2FC048CB9457
:1023080003807068C0931E35D5FF0946FFC48F77D8
:10231800C9EFDCBB57E43FD1FFAE209FF73FC8FFB2
:1023280029FC4E3F1987AC584FC621CB02CCEF7F12
:10233800EFFF7B00609DF749F2F9FE13207EEDF96F
:10234800CEBDFFEFC9F703FCABF6F704F97C7B3C85
:102358003FF08EE797D6BEE7378D5DB530E6F8F8E3
:10236800F510F5BE7CF926AF4B57FEEE7D630ED116
:10237800F1513598DE62961F4F3E466C4664C1990E
:102388007F3C99D36099A0DE07C74C8B000043A41B
:1023980045008021A6C13241BD0F8E396233220B20
:1023A800CE4C3C99AA06D35BCC523CF9D02E3DF2D8
:1023B80077EF1B73888E8F9CE3C7EE21EA7DC59764
:1023C8006FE2ADDAC3DAF7FCA6B1EB59E057637FE9
:1023D8004F90CFB7737E80DF1BCF77EEFD7F4F7EA8
:1023E8002F8079DE27C9E7FB3F8078FFF77C0379E8
:1023F800678AE73FE8C87DFF192F397F433E16FDFE
:102408004E5CF0FCFEF736F45709989EFFBD0D644C
:102418001A1BCABA773F06DF4AB9BE7A02D6FD58F8
:10242800F7C378E367BCF1C3895F38F10BBEACC76B
:1024380097F5309F78CD275EB2BD99ED4D0020DB32
:102448009BD9DEC47CE2359F78E1CB7A7C590F9C1E
:10245800F88513BFC078E367BCF18B7BEFBDF7DE6F
:102468007BEF050071EFBDF7DE7B0B00000000C0BD
:10247800BAF7DE7B7F0080F9FDEFFD7F0F00ACF33C
:102488003E493EDF7F02C4AF3DBF73EFFF7BF27D65
:1024980001FFAAFD5590CFB7C7FCC03B9E5FDC7B10
:1024A800EFD9CBD8F52C8C393E20466FBE7C93D71C
:1024B80085BAF7EE1C8FE8F8A81A00A3244F3E2A25
:1024C800FE00AA149ECC94A0EEBDBFF10D1C1116FF
:1024D80000060C332C50F7DE9F0E0C330D00F5442C
:1024E800E1888A0D00F064AA1A00129E7C785D00CB
:1024F800E12F3A5EC61C9F717FD0B7E3CB37F0D689
:10250800B31360EC7A16F8D5D85F05F9FC76CE0FD0
:10251800F07B3DBF73EFFFABFC5E00F3BC4F92CF87
:10252800F77FC0B8F7DE7BEFBD770000E377FF13D6
:10253800E35FF25D74F4DDF1526319334658408C61
:102548009AC613A9E3BD3BDF505FC97701EE5D0072
:10255800000000000000000078EFBDF7D2F7DEFBB6
:102568000700DE7BEFBDF4BDF7FE010000000000B0
:10257800000000A02A01F0FB3D000070EFBDF7DE6F
:102588007BEFBD030090DFB9FF0E633F21D75F47A4
:102598009DFB8BF1CCEC508FFCFF07F148F0453EDA
:1025A800F0ABB8F0ABDC49EC1A3B89FF7876E03742
:1025B8003CF7DE7B0380F13BF7FF06CFBF42CE1D21
:1025C800DE78CEFD452E77FF423DC218413D06E23A
:1025D800DE9FB7002EC4BD7BCC65AD603CB6B77F2F
:1025E800613C527BCEDD193FF35721E74DFCEE9D50
:1025F8007479A76779273BDFC9EF5EC0BD3F00004C
:102608000000000000000000000000000000300092
:10261800E0071E604E72FD8078EFFDF733C0AFC251
:10262800E85FD540FDCEDD4BFF1A0000000000003A
:102638000000B2F7B9F7DE87B5D708607500E40B7C
:10264800C013006C002C002C00240036009E018072
:102658009300E49E0120DEFBEB7E00516B5D0000E1
:10266800000000000000003CE73F6EE47723BFB89D
:10267800FFF0C83BEB7ED124EBB619516F23E61E61
:10268800EABDEF307E33A07A63FCD600000000007C
:102698000000E6BE674FFCDE21C6FBB3CA7B6FAB0A
:1026A800F533276BFA0D1BB6010060306CB8C6CF46
:1026B8009CCCE9B7CA7BEFAB96DF3BC2787FE6FDDF
:1026C80031EF0F66D532AB16BCF10E6FBC03F9C6FD
:1026D800897CE304D6C89F35F207D7335DCF040061
:1026E8005CCF743D9335F2678DFC916F9CC8374E73
:1026F800F0C63BBCF10E66D532AB1610730F0080E6
:102708007AEF3B0000C66F0600F11BC0583F007E01
:10271800F580B1BB00D453130040BCF10200D0F9DE
:102728002600809A630100F0C60500A0730EE2DC63
:1027380017006365E30B00701DAC0270EFD0630DEA
:10274800AAB30090339B78E324004EBCF8F237001C
:10275800B0C653ACEA0700F9E68F7CF5BDD3BC03DD
:10276800BCD1C10800E03F1FC4BDF7DE69DE01E649
:102778000B0000000010730F00807AEF3B0000C6CA
:102788006F0680F80DC0583F00BF7A80B1BB00EAE1
:10279800A9090020DE780100E87C130040CDB100D3
:1027A8000078E30200D03987FCCEFD7700182BDBD8
:1027B800D84FC8F507701D3AEADC5F8C07EE1D3D5F
:1027C800D66066877A2490331BFFFF201E099C7809
:1027D800017C910F58E329805FC505F9E60FE057A2
:1027E800B913BCD101C4AFC64EE03F1F20FEF5ECC3
:1027F80000CC17F01B9E7BEFBD00200018BF73FFB5
:102808006F0000F5AF90730700E8A8737F910BC4C1
:102818006F80BBBF508F00BF7AC018413D06D453AC
:102828001310F7FEBC8578E30500173ADF04887BB0
:10283800F7988B9A63019E27188FCD1B17E0F7FD39
:10284800C278A4CE39C4B92FDA73EECEF88D95CDFF
:102858001760FE2AE4BC791D5601EA77EEFF8D1E4B
:102868006BA8CE02809CD9E28D930070E2E5CBDFA5
:102878000080359EB2AA1F00C8377FF2D5F74EF305
:102888000EE08D0E230000FFF910F7DE7BA7790715
:10289800305F0000000000E37F06805FC607E09716
:1028A800F10118FF330000000090BFDF0360560DF0
:1028B800009B0720A7310079232E206EEA01F8D269
:1028C8009A80A73C0D70C40F40A9000806504F45D8
:1028D80018C0FBB54705542A577C83E7139F6AB590
:1028E800EFFD22BE64ED2719EB16F0DDBB0000BE3C
:1028F800D20500F02B5F0200FC2A1F0000BFBD00BC
:10290800000000C07BEF000058FC000033980080F6
:10291800BF140F00C8D2C301009F783E9500302D28
:102928002B7C0078C227CA03802307471680281FFC
:102938002A1D0093099F0A804F053C62022A1D90B8
:10294800E5031CBE7BEFBDB7E4005100F08115FE26
:10295800F7DE7BEFBDCB029F91003F3131861F80B0
:10296800913E7C3C003CC6601909C08F9F197E00CF
:10297800186902C0EFDE0900E8F24E00E059DE09EE
:1029880000D8F94E0080F73F01000000E0BD770055
:10299800002C7E0080194C00C05F8A070064E9E1C2
:1029A80000804F3C9F4A009896153E003CE113E595
:1029B80001C09183230B40940F950E80C9844F0565
:1029C800C0A7021E3101950EC8F2010EDFBDF7DE69
:1029D8005B72802800F8C00AFF7BEFBDF7DE6581D7
:1029E800CF48809F9818C30FC0481F3E1E001E6323
:1029F800B08C04E0C7CF0C3F008C3401CC7B0A00BC
:102A0800D06FFA0A00F4CAFBF92600C6C893F51B72
:102A18003B0018BFFFE0F97F01000000E0BD770030
:102A2800002C7E0080194C00C05F8A070064E9E131
:102A380000804F3C9F4A009896153E003CE113E504
:102A480001C09183230B40940F950E80C9844F05D4
:102A5800C0A7021E3101950EC8F2010EDFBDF7DED8
:102A68005B72802800F8C00AFF7BEFBDF7DE658146
:102A7800CF48809F9818C30FC0481F3E1E001E6392
:102A8800B08C04E0C7CF0C3F008C3401804C00E2CE
:102A98003BE72B79FF01E0FF443CBFFBCF0A80CC2A
:102AA80071EEAF22E60720CF0EF53BE70D000000E0
:102AB80000EFBD030060F10300CC600200FE523C51
:102AC80000204B0F07007CE2F95402C0B4ACF001BF
:102AD800E0099F280F008E1C1C5900A27CA87400D6
:102AE8004C267C2A003E15F08809A87440960F7081
:102AF800F8EEBDF7DE92034401C00756F8DF7BEF1E
:102B0800BDF72E0B7C4602FCC4C4187E0046FAF0C2
:102B1800F100F018836524003F7E66F80160A4097F
:102B2800E4FF147EA70178320E59B10078320E59AD
:102B38001600F93F85DF6D00000000EFBD0300605F
:102B4800F10300CC600200FE523C00204B0F07004E
:102B58007CE2F95402C0B4ACF001E0099F280F00F0
:102B68008E1C1C5900A27CA874004C267C2A003EAE
:102B780015F08809A87440960F70F8EEBDF7DE923C
:102B8800034401C00756F8DF7BEFBDF72E0B7C46E8
:102B980002FCC4C4187E0046FAF0F100F018836500
:102BA80024003F7E66F80160A40910DF390D00F8A3
:102BB800AFEEF9028031DE39DF05000000608C7E5F
:102BC800E6BB0080FFFCF57C0180F8CE69000000C0
:102BD8000078EF1D00008B1F0060061300F097E2DD
:102BE8000100597A3800E013CFA71200A665850FB7
:102BF800004FF844790070E4E0C80210E543A503EB
:102C08006032E15301F0A980474C40A503B27C80B3
:102C1800C377EFBDF7961C200A003EB0C2FFDE7BEB
:102C2800EFBD7759E03312E02726C6F00330D2878C
:102C38008F0780C7182C2301F8F133C30F00234DE9
:102C480000E0BDF7DE7BEFBDF7DEFB02803101005F
:102C58000070057DEFBDF7DE7B5F0058C3CB050034
:102C680000F1AA490000805F44030000D4638E602D
:102C78000000C02B1B0200002B35020000F2550F8C
:102C880086BAF7DE7BEF5D00DE88170000E0296F6B
:102C9800C294F7DE7BEFBD0BA0E5020C00804E79F5
:102CA800EFBDF79600008C050000806BDC7BEFBD64
:102CB800F74E008039BC00410040B4F1005C004090
:102CC80087170006006A1A0F00FCEFBDF7DE7BEFDE
:102CD800D2BC00240000D9FBDCF35B01F0FED7086E
:102CE800517D0BF84DCFBEF7BC19BF07DEB2BE4110
:102CF800CC9D7E414ED540B478F9D1004F78283923
:102D0800003C32222D00BE7322190044040000004A
:102D180000000000008064001011222D00BE7342E4
:102D2800C901E091E1E30578C2C7989E09448B89FF
:102D38007778DF41CE9DF105FC1F73DFFB7F33BF42
:102D480002F1ED39C87AFF0530DEBFDCBF09008F1C
:102D5800BC1300D4FDA20100090058B74D00105162
:102D68006F03F8EE5D007CA50B805FF912805FE5CC
:102D78000380DF5E000058F7DE7BEFBDF7DEFB0760
:102D880000B0EFBDF7DE7BEF1F0000000000000081
:102D9800000000B0EFBDF7DE7B170000FBDE7BEF25
:102DA800BD7701000000000000000000000000FBEB
:102DB800DE7BEFBDF75E0000E077EF04D0E59D0015
:102DC800CFF24E003BDF09C0FB9F000058F7DE7BC7
:102DD800EFBDF7DEFB0700B0EFBDF7DE7BEF1F00AE
:102DE800000000000000000000B0EFBDF7DE7B1718
:102DF8000000FBDE7BEFBD77010000000000000053
:102E08000000000000FBDE7BEFBDF75E0000CC7B1E
:102E18000A40BFE92B40AFBC9F6F8231F264FDC608
:102E28000E18BFFFE0F97F0100B0EEBDF7DE7BEFC3
:102E3800BDF70F0060DF7BEFBDF7DE3F000000004D
:102E480000000000000060DF7BEFBDF72E0000F6F9
:102E5800BDF7DE7BEF02000000000000000000006C
:102E68000000F6BDF7DE7BEFBD0000F93F85DF69A6
:102E780078320E59B1E0C938645990FF53F8DD062D
:102E88000058F7DE7BEFBDF7DEFB0700B0EFBDF7BC
:102E9800DE7BEF1F00000000000000000000B0EF24
:102EA800BDF7DE7B170000FBDE7BEFBD770100007E
:102EB80000000000000000000000FBDE7BEFBDF713
:102EC8005E00C077EFC257BAF02B5FE257F9C06FC8
:102ED8002F009E7B1700000000000000000000008B
:102EE800000000000000E077EFA4CB3B3DCB3BD9CE
:102EF800F94EBCFF09C073EF02000000000000009B
:102F08000000000000000000000060DE53A0DFF4B5
:102F1800157AE5FD7CD31879B27E63C7F8FD07CF33
:102F2800FF0B00F0DCBB0000000000000000000008
:102F380000000000000000000000000000000090F9
:102F4800FF53F89D7E320E59B19E8C439695FF53E0
:102F5800F8DD0600CFBD0B000000000000000000F7
:102F68000000000000000000000000000000000059
:102F7800C4BDF7DE7BFFDF030090CF771E0075EF3F
:102F8800BDFF37E36B0090F3FF581300F00D1D00F1
:102F9800802B5E00C0480F0040C900001C72DD4352
:102FA800DD7BFF00130000EB1EEADEFB070000C01C
:102FB80004001C0200503201804A0F00A0C50B001B
:102FC800E237740020D72E6B02EADE7BFF9DF935CD
:102FD8000018CFF77F00003201F19DF395BCFF0088
:102FE800FE4FC4F3BBFFAC0099E3DC5F45CC0FC8D0
:102FF800B343FDCE79030000FEF7168071EF8B37DF
:103008000000F90300780A00086F0080291B00F40B
:10301800300B00DCF0028031E50B007A9805006E79
:103028007801C098F205003DCC02009717008C2566
:103038005F00D069160038BC00602C0100740200E3
:103048001C0080B100BE7B1700F0952E00E057BE33
:1030580004007E950F00E0B71700000090BDCF3D3B
:10306800BF09A0F71A21EA3D0FF0ADA87DEF79332B
:10307800BE09EBB17E83987BE841BEAA813811CDA9
:10308800172E402E954A14803F4F0C05C0C33F4968
:103098000082890B80140000000080038014C9009E
:1030A8002098910A8087BF4714803F8F2F5C8058F3
:1030B8002AE5540DF8221A5DD6AF88F92F3DE0B7FE
:1030C800A27EF79E37E39B40EF3542549F0700FCF2
:1030D800EE9D00A0CB3B01E059DE090076BE13004F
:1030E80078FF13000000C8DEE79EDF04D07B8D1058
:1030F800F59E07F856D4BEF7BC19DF84F558BF41D2
:10310800CC3DF4205FD5409C88E60B1720974A25D4
:103118000AC09F278602E0E19F2400C1C405400A37
:1031280000000000C001408A640010CC4805C0C3FC
:10313800DF230AC09FC7172E402C9572AA067C1160
:103148008D2EEB57C4FC971EF05B51BF7BCF9BF1D4
:103158004DA0F71A21AACF03C0BCA70040BFE92B96
:1031680000F4CAFBF9268031F264FDC60E80F1FB3B
:103178000F9EFF17000000C8DEE79EDF04D07B8D9E
:1031880010F59E07F856D4BEF7BC19DF84F558BF72
:1031980041CC3DF4205FD5409C88E60B1720974A28
:1031A800250AC09F278602E0E19F2400C1C405408C
:1031B8000A00000000C001408A640010CC4805C025
:1031C800C3DF230AC09FC7172E402C9572AA067C1E
:1031D800118D2EEB57C4FC971EF05B51BF7BCF9B24
:1031E800F14DA0F71A21AACF0300C80488EF9CAFBD
:1031F800E4FD07E0FF443CBFFBCF0A20739CFBAB18
:1032080088F901F2EC50BF73DE00000040F63EF78B
:10321800FC2680DE6B84A8F73CC0B7A2F6BDE7CDDC
:10322800F826ACC7FA0D62EEA107F9AA06E2443403
:103238005FB800B9542A5100FE3C3114000FFF2436
:103248000108262E005200000000000E0052240340
:103258008060462A001EFE1E5100FE3CBE700162C0
:10326800A9945335E08B687459BF22E6BFF480DF18
:103278008AFADD7BDE8C6F02BDD708517D1E40FEC9
:103288004FE1771AE0C93864C50278320E59164002
:10329800FE4FE1771B000000D9FBDCF39B007AAFFF
:1032A80011A2DEF300DF8ADAF79E37E39BB01EEB4C
:1032B8003788B9871EE4AB1A8813D17CE102E4523F
:1032C800A94401F8F3C450003CFC93042098B800CA
:1032D800480100000000380048910C008219A9003C
:1032E80078F87B4401F8F3F8C20588A5524ED580DA
:1032F8002FA2D165FD8A98FFD2037E2BEA77EF795A
:1033080033BE09F45E2344F5796036C0373CEF6A72
:10331800E0F7FCB386D5F02B95F11FD6CBAF3C1F59
:10332800B1CBFC7EE5F9C0AF3CE5F9006F901F20FA
:103338004E901F10FF6195E783F80FAB7FE5F98882
:10334800FFB09A5F793E35AC865FA97CDED5C0EFC9
:10335800F9270040BF0162FDCE3DBF15E61A01F313
:103368007685A8BEABF307FDC6F8CE3D5F46470796
:103378006A79F613E2D903F0CA0F90349EF403FC7D
:1033880062C887CB02EAA9C365C900DE78332CD2AC
:1033980004DE7CD3230540CDB100006F1C20003A29
:1033A800670211C098A301A407372E989225D21A54
:1033B8006B40A4C5E5CB371B2C2E4F9A275EE093B4
:1033C8000F5A8C59E01B1A9EC99A41FD1EF3012918
:1033D800E23DF7FE2AFA05B39EDB1562F45E203A59
:1033E8007EB17EE79EBD12887B030080EFDE05007C
:1033F800BED205007EE54B00F0AB7C0080DF5E00AE
:10340800000071EF0BE0BD77000000000000000035
:1034180000000000000000000000000000000000A4
:1034280000000000000041021884F20440C974C47E
:103438000FF0861FCFE3F915C6373D13DF54BF7B66
:10344800EF7ECC0FBCFF35428CF57F01E077EF04AF
:10345800802EEF04C0B3BC130076BE1300BCFF0976
:10346800000010F7BE00DE7B07000000000000002F
:103478000000000000000000000000000000000044
:1034880000000000000010248041284F00944C47A1
:10349800FC006FF8F13C9E5F617CD333F14DF5BBC6
:1034A800F7EEC7FCC0FB5F23C458FF1780794F01B4
:1034B80040BFE92B007AE5FD7C13608C3C59BFB115
:1034C80003307EFFC1F3FF020000E2DE17C07BEF8E
:1034D80000000000000000000000000000000000E4
:1034E800000000000000000000000000000082044E
:1034F8003008E5098092E9881FE00D3F9EC7F32B4D
:103508008C6F7A26BEA97EF7DEFD981F78FF6B8444
:1035180018EBFF02F27F0ABFD38027E390150BF068
:10352800641CB22C40FE4FE1771B0000E2DE17C09E
:103538007BEF000000000000000000000000000019
:103548000000000000000000000000000000000073
:1035580082043008E5098092E9881FE00D3F9EC784
:10356800F32B8C6F7A26BEA97EF7DEFD981F78FFB5
:103578006B8418EBFF0280DFBD1300747927003CD1
:10358800CB3B01C0CE770200EF7F02000058F77EE8
:10359800007CF7CE959E01301E636A1AA079798661
:1035A8001A40957A70B940D3301EA3E0199E013AAB
:1035B80034BCA2819CC6C31C6602DED0FC4403C492
:1035C8002BE74C0DC04ABF3626005A860680A7A8AE
:1035D8000200870300000000000000000000000057
:1035E800000000009E7B0700000000000000F6BD00
:1035F800F79EDF0A0044F59D60DF7BEF7933DE0735
:1036080040CC1B7E00C85714008A010000403100DE
:10361800C84F1440CC9B7EB0EFBDF7BC19EF032018
:10362800AAEF04FBDE7BCF6F05000000000000005E
:1036380080E87DEFEE00C65E83B1EE0027E3BBF7BE
:103648008BB8F0A4DFC3F31A03573C504C4C03006B
:1036580002504C007CC600A0530360AA0260840D8F
:1036680080E40F8028CF0380377C0B80FCA77E0185
:10367800187B982F00F11FE600202E3F00240180C0
:10368800E282BD92A7C58231FA7FEF97F1058CF7E8
:103698004972EE82EFDE05C057BA00F8952F01F89F
:1036A800553E00F8ED0500008C77DFFB7F0778F7C3
:1036B8001CE4DC0BEFF4EC7BF7D025A6E71B8C7F32
:1036C800387C5F83782CF13C099050EF3EF7DE821E
:1036D800F8FDE60880AF3CBF73EF2D8C32BF0A407F
:1036E800F1018000168207CC8119DEC9785FF08F5E
:1036F80078EFDDB38A34EE4A51DF6FB3007EF74EC0
:10370800005DDE09F02CEF04B0F39D00BCFF09005A
:10371800008C77DFFB7F0778F71CE4DC0BEFF4EC19
:103728007BF7D025A6E71B8C7F387C5F83782CF14C
:103738003C099050EF3EF7DE82F8FDE60880AF3C8A
:10374800BF73EF2D8C32BF0A40F10180001682074B
:10375800CC8119DEC9785FF08F78EFDDB38A34EE5B
:103768004A51DF6FB380794F01E8377D05E895F757
:10377800F34D30469EACDFD801E3F71F3CFF2F0026
:103788000018EFBEF7FF0EF0EE39C8B917DEE9D919
:10379800F7EEA14B4CCF3718FF70F8BE06F158E290
:1037A800791220A1DE7DEEBD05F1FBCD11005F7918
:1037B8007EE7DE5B18657E1580E20300012C040FAE
:1037C800980333BC93F1BEE01FF1DEBB671569DCDB
:1037D80095A2BEDF66012013E23BE72B79FF81FF4C
:1037E80013F1FCEE3F2BC81CE7FE2A627EC8B343E8
:1037F800FDCE79030080F1EE7BFFEF00EF9E839C06
:103808007BE19D9E7DEF1EBAC4F47C83F10F87EFA8
:103818006B108F259E270112EADDE7DE5B10BFDF04
:103828001C01F095E777EEBD8551E65701283E006B
:1038380010C042F0803930C33B19EF0BFE11EFBDC9
:103848007B5691C65D29EAFB6D16F93F85DF6978DD
:10385800320E59B1E0C938645990FF53F8DD0600BB
:10386800C078F7BDFF778077CF41CEBDF04ECFBE91
:10387800770F5D627ABEC1F887C3F73588C712CF64
:10388800930009F5EE73EF2D88DF6F8E00F8CAF309
:103898003BF7DEC228F3AB00141F0008602178C094
:1038A8001C98E19D8CF705FF88F7DE3DAB48E3AE39
:1038B80014F5FD360BC4774E03F8AFEEF902C6785F
:1038C800E77C17000018A39FF92E80FFFCF57C0108
:1038D800E23BA70100C078F7BDFF778077CF41CEE4
:1038E800BDF04ECFBE770F5D627ABEC1F887C3F7D1
:1038F8003588C712CF930009F5EE73EF2D88DF6F77
:103908008E00F8CAF33BF7DEC228F3AB00141F00A1
:1039180008602178C01C98E19D8CF705FF88F7DEC8
:103928003DAB48E3AE14F5FD360BF377EEF92DE425
:10393800FBBFE7B740EEB74254EF587BA6A8FE2777
:10394800EE30FFF7B4B13B6ADFFB461E669A6F8A1A
:10395800F548F51BCCCF9822FCC041831AFED63916
:10396800091663008F0701E0011C11D4BBCFBD7796
:1039780033EFBDF7DEDBF0FDE6080000D623BF73AA
:10398800EFDDF4BDF7DE7BEFBDF189FD04F0074004
:103998007A02A00280B080227E808765BCC9B3DB32
:1039A800E3F915F1FCBEA587F9BFF71BF17D6FD4CC
:1039B800EFDEF35510BB47C8EAFB987B8D10D5772F
:1039C80081F93BF7FC1E10FBAD10F5FD02FF117DE0
:1039D800EE59EAA387DF0AD1AD1E533D60853BC28D
:1039E80006CC1A0F03D0BF3758000000C102E021EF
:1039F8000139C6087FC0D96DAA073CC3D1C36F85FA
:103A0800583FF5F01FD1E79E8EFA21F65B219EDF25
:103A18000F985FE4FD0AE0917702A8FB45032001B7
:103A2800B06E9B0022EA6DC077EF02E02B5D00FCD0
:103A3800CA9700FC2A1F00FCF6020000D4EFDCFF46
:103A480057C0EF57219FDF0BBFD2E7FE1F73B14A64
:103A5800AF905F79C36B2C70C5AAF0032AECC10044
:103A68000C71F8DD7BEFBD374D00E0F0BFF7DE7B72
:103A7800EFBDFF640250E10010CBF300DF4E9DBEA6
:103A88004EEAF7E4147B58FF7B7F155F11FB7B52EE
:103A98008CBE05E077EF04D0E59D00CFF24E003BE9
:103AA800DF09C0FB9F000080FA9DFBFF0AF8FD2A92
:103AB800E4F37BE157FADCFF632E56E915F22B6F2E
:103AC800788D05AE58157E40853D1880210EBF7B48
:103AD800EFBDF7A609001CFEF7DE7BEFBDF79F4C94
:103AE800002A1C0062791EE0DBA9D3D749FD9E9C01
:103AF800620FEB7FEFAFE22B627F4F8AD1B78079FD
:103B08004F01E8377D05E895F7F34D30469EACDF69
:103B1800D801E3F71F3CFF2F0000A07EE7FEBF029D
:103B28007EBF0AF9FC5EF8953EF7FF988B557A85BB
:103B3800FCCA1B5E63812B56851F50610F06608887
:103B4800C3EFDE7BEFBD69020087FFBDF7DE7BEFC9
:103B5800FD2713800A0780589E07F876EAF4755205
:103B6800BF27A7D8C3FADFFBABF88AD8DF9362F484
:103B78002DE4FF147EA7E1C93864C58227E3906568
:103B880041FE4FE1771B0000EA77EEFF2BE0F7AB31
:103B980090CFEF855FE973FF8FB958A557C8AFBCC1
:103BA800E13516B86255F80115F660008638FCEE66
:103BB800BDF7DE9B260070F8DF7BEFBDF7DE7F32B6
:103BC80001A8700088E579806FA74E5F27F57B72A2
:103BD8008A3DACFFBDBF8AAF88FD3D2946DFE2BB09
:103BE80077E12B5DF8952FF1AB7CE0B717007EF7F6
:103BF80002000000000000000000000000C0EFDE2E
:103C08004997777A9677B2F39D78FF1300BF7B01C7
:103C180000000000000000000000000000F39E0209
:103C2800FDA6AFD02BEFE79BC6C893F51B3BC6EFAD
:103C38003F78FE5F0080DFBD00000000000000004C
:103C48000000000000000000000000E4FF147EA750
:103C58009F8C4356AC27E39065E5FF147EB701C0FF
:103C6800EF5E0000000000000000000000000000FF
:103C7800000000000078F64A00CEE8FF97D40EFC5A
:103C88008B67AFEF9785F9FB4FD1CFD80FC82ECCF4
:103C9800046AD7189E09BCA3F7099DE0EC257FE2CA
:103CA8000746E219168CF77FCF6FFEC443EF99A23F
:103CB800DE97BFB58CDFBDFFC6C8D7D845AE1DD6C9
:103CC800132E90436C3100981E000080191E40A4EA
:103CD80051A280C5EF0B6F40B431B2E5BFA81D718A
:103CE800996F8CDFBDBF8CFFC0DC6B30FA0E0064AF
:103CF80022BE73BE92F71FFC9F88E777FF59217396
:103D08009CFBAB88F9916787FA9DF30600E077FF83
:103D1800F2FDDFF37B40ED99A2BE85F13DFBDE5F4E
:103D2800EA24EA37A897073F50FC11000100000079
:103D380000000000000000000000000000BE7B172B
:103D480000BED205805FF91200BFCA07007E7B0162
:103D5800000098BF73CF6F02B9DF0A51EF4EC41D40
:103D6800D1E79E8E71834EBF1562FD648BE979C0E1
:103D7800F398B13880C3BA3C80879B042018008030
:103D88002400C9B83C80C52D0EE0B2F2F114781EAB
:103D980033FCD2B742AC9F6CE28EE8734FC7B88150
:103DA800DC6F85A8772700BF7B27005DDE09E05917
:103DB800DE09C0CE7702E0FD4F000000F377EEF990
:103DC8004D20F75B21EADD89B823FADCD3316ED0C8
:103DD800E9B742AC9F6C313D0F781E331607705817
:103DE8009707F0709300040300900420199707B018
:103DF800B8C5015C563E9E02CF63865FFA5688F5C9
:103E0800934DDC117DEEE9183790FBAD10F5EE040B
:103E180098F71400FDA6AF007AE5FD7C1318234F30
:103E2800D66FEC00E3F71F3CFF2F0000C0FC9D7B22
:103E38007E13C8FD56887A7722EE883EF7748C1B6D
:103E480074FAAD10EB275B4CCF039EC78CC5011CE1
:103E5800D6E5013CDC2400C10000240148C6E50188
:103E68002C6E710097958FA7C0F398E197BE1562E5
:103E7800FD641377449F7B3AC60DE47E2B44BD3B1B
:103E8800012013C477CE57F2FE03FE4FC4F3BBFFE5
:103E9800AC40E638F75711F3833C3BD4EF9C37002E
:103EA8000080F93BF7FC2690FBAD10F5EE44DC11E1
:103EB8007DEEE91837E8F45B21D64FB6989E073CAB
:103EC8008F198B0338ACCB0378B8490082010048BE
:103ED80002908CCB0358DCE2002E2B1F4F81E73178
:103EE800C32F7D2BC4FAC926EE883EF7748C1BC8F5
:103EF800FD56887A7742FE4FE1771A3C1987AC580D
:103F0800E0C938645920FFA7F0BB0D0000CCDFB929
:103F1800E73781DC6F85A87727E28EE8734FC7B84B
:103F280041A7DF0AB17EB2C5F43CE079CC581CC089
:103F3800615D1EC0C34D02100C00401280645C1EFF
:103F4800C0E216077059F9780A3C8F197EE95B219F
:103F5800D64F367147F4B9A763DC40EEB742D4BBFD
:103F680013609F1700356202A0464C00D8E7050091
:103F78000000807BEFBDF7DE7BEFBDF70500DC7B43
:103F8800EFBDF7DE7BEFBD2F00000000ECF302A0D1
:103F9800464C00D4880900A0DE0480F749F0FCCE26
:103FA8003DBF2F5F88FD55887A2CF88FE8734F71D5
:103FB8008377F8AD104FCA9F58EAC18A777AB2C2A0
:103FC8008177D4C7F36761451B9C20F18E82045624
:103FD800341024EF28107F96158DE25FE17A47E1CF
:103FE800CF13CBF3C58B9A9ED4E98925D6277FC4F6
:103FF8004DF1BFA7236F608C5121EAFD27BC717F6B
:10400800E79EDF04F40080EFDE05E02B5D007EE52F
:104018004B00BFCA0780DF5E0000FCEE1F70EF0F89
:104028000000000000000000000000000000008008
:104038009000FC29B0F0847730DE46B6DCF7EEF964
:1040480024E6AF42D4F701F0BB7702747927E05930
:10405800DE09B0F39D00DEFF0400E077FF807B7F80
:104068000000000000000000000000000000000048
:104078008404E04F818527BC83F136B2E5BE77CF53
:1040880027317F15A2BE0F30EF29807ED35740AF6E
:10409800BC9F6FC21879B27E6307C6EF3F78FE5F98
:1040A80000007EF70FB8F7070000000000000000CE
:1040B80000000000000000404800FE145878C23B91
:1040C800186F235BEE7BF77C12F35721EAFB20FF86
:1040D800A7F03B8D27E390150B4FC621CB42FE4F2F
:1040E800E1771B00F0BB7FC0BD3F0000000000006F
:1040F800000000000000000000004202F0A7C0C25B
:1041080013DEC1781BD972DFBBE79398BF0A51DF72
:104118000780DFBD13409777023CCB3B01EC7C273F
:1041280000EF7F0200A0EF7D80BAB77F5CE0CF6F21
:104138000C052C63F8890746F831B9F0E3214AC128
:10414800A312473C8CF487271C8A05CA137E2AC011
:104158001195C3012A9D473C80C7F353003F311C8A
:1041680080318802F06301507C003C7200F07900D5
:1041780018C307A08E2701FFFBCBF1039862FE034B
:1041880070EF0F000000000000000000000000F3C6
:1041980077EEBF03ACDF5B21D71D309EF7DCB3C4DD
:1041A8003F10FF19A25B349E01565A0078C400E004
:1041B800CF0460028005000200FC99003C62F00C0C
:1041C800B0D244FC67886EF962E47BEE59E204D60B
:1041D8007E2BE4BA0398BF73FF1D000000000000A7
:1041E800000000C8FF29FC4EC39371C88A054FC65A
:1041F80021CB82FC9FC2EF360040DFFB00756FFFCA
:10420800B8C09FDF180A58C6F0130F8CF06372E12C
:10421800C743948247258E7818E90F4F38140B94BA
:1042280027FC5480232A8703543A8F78008FE7A706
:10423800007E623800631005E0C702A0F80078E449
:1042480000E0F30030860F401D4F02FEF797E307AA
:1042580030C5FC070000000000000100EBFF0B0068
:1042680015000D0000000000200000000000000004
:10427800000007009702000021000200EBFF040085
:10428800150008009702000022000200E9FF06005E
:1042980007000A004003000023000100EBFF1200A2
:1042A800150012009F03000024000100E7FF0F0023
:1042B8001C0011001807000025000100EBFF140086
:1042C80015001600480B000026000100EBFF120045
:1042D80015001300CB0F000027000100E9FF0300C1
:1042E80007000500F013000028000200E8FF08009E
:1042F8001F000A001D14000029000000E8FF090043
:104308001F000A005A1600002A000000EBFF0D00EB
:104318000C000D00BC1800002B000100EEFF0F0080
:1043280010001100911A00002C000000FDFF05008C
:1043380007000600161C00002D000000F6FF08000C
:10434800020008007A1C00002E000200FDFF040095
:1043580003000800AC1C00002F000000EBFF0C005D
:1043680017000C00E91C000030000100EBFF0F00F3
:1043780015001100031F000031000200EBFF0900C7
:1043880015001100DB21000032000100EBFF0F00D7
:10439800150011001223000033000100EBFF0E008E
:1043A800150011003026000034000000EBFF11005A
:1043B800150011008929000035000200EBFF0E00EE
:1043C80015001100232C000036000100EBFF0F0040
:1043D80015001100322F000037000100EBFF0F001D
:1043E80015001100A232000038000100EBFF0F0099
:1043F800150011003135000039000100EBFF0E00F7
:1044080015001100D93800003A000200F0FF04003E
:1044180010000700213C00003B000000F0FF0600F0
:1044280014000600D43C00003C000100F0FF0C0022
:104438000D000F00CF3D00003D000200F2FF0D000F
:1044480008001000C03F00003E000200F0FF0D0011
:104458000D001000CA4000003F000100EBFF0C00F7
:1044680015000E00E742000040000100EBFF1900B4
:104478001B001B005C45000041000000EBFF14001E
:1044880015001400B24C000042000200EBFF0F00C0
:10449800150013002F50000043000100EBFF12002D
:1044A800150014001D53000044000200EBFF10002B
:1044B80015001400B156000045000200EBFF0E0085
:1044C800150011006B59000046000200EBFF0E00BA
:1044D80015001100755B000047000100EBFF12009A
:1044E80015001400535D000048000200EBFF1100A6
:1044F80015001500F760000049000200EBFF0400FA
:1045080015000800D26200004A000000EBFF0F000F
:1045180015001100376300004B000200EBFF11008B
:1045280015001300466500004C000200EBFF0E006A
:1045380015001000506800004D000200EBFF160047
:1045480015001A00B36900004E000200EBFF1100CD
:10455800150015003B6D00004F000100EBFF120035
:10456800150015009E6F000050000200EBFF1000C0
:10457800150013002F73000051000100EBFF12001B
:1045880019001500B775000052000200EBFF10007B
:1045980015001200F079000053000100EBFF100035
:1045A80015001200BC7C000054000000EBFF120054
:1045B80015001200B080000055000100EBFF11004B
:1045C80015001300B282000056000000EBFF130034
:1045D80015001300FE84000057000000EBFF1A00CE
:1045E80015001B004C88000058000000EBFF12006B
:1045F80015001300F68C000059000000EBFF1200B4
:10460800150012008D9000005A000100EBFF100009
:1046180015001200439300005B000200E8FF06004B
:104628001D000800329600005C000000EBFF0D0042
:1046380017000C001B9700005D000000E8FF060053
:104648001D000800539900005E000100EBFF0B00FD
:104658000A000D00389A00005F00000000000E00FC
:1046680002000E006B9B000060000000EAFF0700DC
:1046780004000900BF9B000061000100F0FF0E006C
:10468800100010001C9C000062000200E9FF0E00F0
:1046980017001100BE9E000063000100F0FF0E002D
:1046A8001000100055A1000064000100E9FF0E0091
:1046B80017001100D9A3000065000100F0FF0E00EB
:1046C800100010007CA6000066000000E9FF0B0047
:1046D80017000A0033A9000067000100F0FF0E0070
:1046E80016001100D9AA000068000200E9FF0D00B9
:1046F800170011002CAE000069000200EAFF040058
:1047080016000700F7AF00006A00FFFFEAFF060087
:104718001C00070092B000006B000200E9FF0E00C9
:1047280017000F00AFB100006C000200E9FF0300A2
:104738001700070027B400006D000100F0FF180003
:1047480010001A007AB400006E000200F0FF0D009D
:10475800100011002CB700006F000100F0FF0F00DF
:1047680010001100A5B8000070000200F0FF0E0054
:104778001600110046BB000071000100F0FF0E009A
:1047880016001100F8BD000072000200F0FF0800DA
:1047980010000A00A3C0000073000100F0FF0D0024
:1047A80010000F0080C1000074000000ECFF090039
:1047B80014000A004CC4000075000200F0FF0D0050
:1047C800100011008EC5000076000000F0FF0F00F9
:1047D80010000F00F1C6000077000000F0FF17007E
:1047E800100017001DC9000078000000F0FF0F003E
:1047F80010000F009FCC000079000000F0FF0E00B1
:1048080016000E0000CF00007A000100F0FF0D0036
:1048180010000F00D7D100007B000000E9FF0A005C
:104828001C000A00E7D300007C000200EBFF030035
:104838001900070029D600007D000000E9FF0A00E2
:104848001C000A0082D600007E000100F4FF12005E
:1048580005001400B7D80000A00000000000000008
:104868000000070004DA0000A1000100F0FF0500C5
:104878001500070004DA0000A2000100ECFF0E009A
:1048880018001000BCDA0000A3000100EBFF1000C4
:1048980015001100D3DD0000A4000100EDFF130096
:1048A80014001500A5E00000A5000000EBFF1200B1
:1048B8001500120008E50000A6000200EBFF030047
:1048C8001900070050E80000A7000100EBFF1000E6
:1048D8001C001200CBE80000A8000100EAFF0A0053
:1048E80003000D0033EE0000A9000100EBFF1600E5
:1048F80015001800A3EE0000AA000100EBFF0B0052
:104908000B000D008DF40000AB000100F2FF0C005D
:104918000C000E0025F60000AC000100F4FF0D00AD
:104928000600110013F80000AD000000F6FF0800B3
:1049380002000800BEF80000AE000100EBFF160000
:1049480015001800F0F80000AF000100EBFF0C00A4
:1049580002000E0056FE0000B0000100EBFF090047
:1049680008000B009EFE0000B1000100EDFF0E00E4
:1049780013001000A3FF0000B2000100EBFF0900C4
:104988000C000B006B010100B3000000EBFF0A00F4
:104998000C000B00ED020100B4000100EAFF070063
:1049A80004000900A7040100B5000200F0FF0D0093
:1049B8001600110006050100B6000100EBFF0C000F
:1049C80015000F00CE060100B7000200F4FF040036
:1049D800030008007A080100B80001000000050083
:1049E80006000700B7080100B9000100EBFF070047
:1049F8000C000B002A090100BA000200EBFF0A00B4
:104A08000B000E00CF090100BB000100F2FF0C00F3
:104A18000C000E00310B0100BC000000EBFF16007B
:104A280015001600190D0100BD000000EBFF16006F
:104A380015001700E9100100BE000100EBFF160089
:104A48001500170021150100BF000000F0FF0D0040
:104A580016000E00F3190100C0000000E5FF140065
:104A68001B0014008F1C0100C1000000E5FF1400AA
:104A78001B001400D3200100C2000000E5FF140051
:104A88001B0014001A250100C3000000E5FF1400F4
:104A98001B0014009A290100C4000000E6FF14005E
:104AA8001A0014003D2E0100C5000000E3FF1400A9
:104AB8001D0014008D320100C600FFFFEBFF1D0032
:104AC80015001C0040370100C7000100EBFF120071
:104AD8001B001400EB3B0100C8000200E5FF0E00BC
:104AE8001B00110050400100C9000200E5FF0E0044
:104AF8001B001100FD420100CA000200E5FF0E0084
:104B08001B001100AD450100CB000200E6FF0E00BE
:104B18001A00110096480100CC00FFFFE5FF0700CE
:104B28001B000800554B0100CD000200E5FF0700FF
:104B38001B000800724C0100CE00FFFFE5FF0A00D1
:104B48001B000800924D0100CF00FFFFE6FF0A009E
:104B58001A0008003C4F0100D0000000EBFF1300D2
:104B680015001400C0500100D1000200E5FF11003B
:104B78001B001500ED530100D2000100E5FF1200F3
:104B88001B00150064570100D3000100E5FF120067
:104B98001B001500B05B0100D4000100E5FF120006
:104BA8001B001500FF5F0100D5000100E5FF1200A2
:104BB8001B00150087640100D6000100E6FF120003
:104BC8001A00150032690100D7000100F0FF0E003D
:104BD8000D0010008C6D0100D8000100EAFF1300E1
:104BE80018001500CE6F0100D9000100E5FF110083
:104BF8001B0013009B740100DA000100E5FF11009F
:104C08001B0013009C770100DB000100E5FF110089
:104C18001B001300A07A0100DC000100E6FF110070
:104C28001A001300DD7D0100DD000000E5FF120021
:104C38001B001200ED800100DE000200EBFF0F00F8
:104C48001500120061840100DF000200E9FF0F0077
:104C580017001200C5860100E0000100EAFF0E00FF
:104C680016001000DC890100E1000100EAFF0E00D7
:104C780016001000218D0100E2000100EAFF0E007D
:104C88001600100069900100E3000100EAFF0E0021
:104C980016001000EA930100E4000100EBFF0E008B
:104CA800150010008E970100E5000100E8FF0E00D6
:104CB80018001000E59A0100E6000100F0FF180056
:104CC800100019008D9E0100E7000100F0FF0E00A2
:104CD8001600100043A30100E8000100EAFF0E00DF
:104CE800160010007BA60100E9000100EAFF0E0093
:104CF80016001000D5A90100EA000100EAFF0E0025
:104D08001600100032AD0100EB000100EBFF0E00B1
:104D180015001000C8B00100EC00FEFFEAFF070014
:104D28001600070034B40100ED000100EAFF070097
:104D3800160007002BB50100EE00FFFFEAFF0A008E
:104D48001600070025B60100EF00FFFFEBFF0A0081
:104D5800150007009AB70100F0000200E9FF0E00F5
:104D680017001200E9B80100F1000200EAFF0D0087
:104D780016001100B1BC0100F2000100EAFF0F00AB
:104D88001600110026BF0100F3000100EAFF0F0022
:104D98001600110070C20100F4000100EAFF0F00C4
:104DA80016001100BDC50100F5000100EAFF0F0063
:104DB8001600110043C90100F6000100EBFF0F00C7
:104DC80015001100ECCC0100F7000100EFFF0F0007
:104DD8000E00110047D00100F8000100EEFF0F009F
:104DE80014001100F2D10100F9000200EAFF0D00E1
:104DF8001600110075D50100FA000200EAFF0D0047
:104E08001600110075D70100FB000200EAFF0D0033
:104E18001600110078D90100FC000200EBFF0D001C
:104E280015001100B4DB0100FD000000EAFF0E00D0
:104E38001C000E00C7DD0100FE000200E9FF0E00A5
:104E48001D00110044E10100FF000000EBFF0E000F
:104E58001B000E0059E401000000000000000000E3
:104E680000000000E5E7010000000000000000006D
:104E7800F7DE7BEF1DFF7BEFAEA7F0A44CF9508F58
:104E8800672046C2BC0F00E67D2046A21ECF2053F5
:104E98003E9EC293E37FEFDDF5DC052058100C60E1
:104EA800DC07E3ACC5FB731F0183E9108201EF8FB8
:104EB800F707D4666D9059461471EFDFBEDBBE115B
:104EC800F73E75EFF3DC1B988399401EC61F643CC0
:104ED800D2C4FFFEEDFBB7EFE37FD7B877D5BD0FA0
:104EE800F26124B00EF300992207189634012200CB
:104EF800760300AC7FAEDFC0D729EA3FE493FB9E80
:104F080019AFE537C49B255CE857E5FC15CFE26689
:104F1800FDCE97C8FF5B9E5D307F7746AB42BC35C0
:104F2800A23F10547C29E693F1E6F3BFE7F5137B23
:104F380086A8DF24DEE3F72B2003BCE734403F7765
:104F48003F13F07C91CF9FF80539B8935F0439B8C7
:104F5800D3533F3C5FE4B3E3F70BF473F7B37EF549
:104F680080F79C7EAABF731688DFAFE3ECF7815FFA
:104F78003D75E4BA78EA272682F8FD424C044F3D95
:104F8800D491EB521FBE38FB7D98FB9E069E778816
:104F9800F581E3BDFF7CC032650528A5D6046FBE48
:104FA800BFDF6C104FD6DBC0BB2A3EAC61CDFEFD27
:104FB800C627BBBC6379DEE72D4304E63B3B4BE5E4
:104FC8001B42C447C73CF7BC91EF30F64CF1ECEB01
:104FD800C45D484C7807DE0AE63C297A0E66FCF088
:104FE8008D64E40F8F8163220C24481012C7C263BA
:104FF80060E40FBE9198F143F41A98EB24DE8AB965
:10500800E0791746F7C01C17DEF1E08903F5C03FC9
:1050180006D2831058608110480FFE31500F2A0EB7
:10502800EE7878EA327E3D78DE053C1700D44A8C6B
:10503800D778FFEDBF2BD7F90DEBFF4F86A706AA50
:10504800FB1B1F3CD31BA88FFA0001609C050000C6
:105058000000C6BD77EB7BEF02C0B8F76E7DEF5D51
:105068000000000020BBC0EFC2CC91DFACF5DE7BB6
:105078006F00F34C01C499605AE0AB80CA034E1626
:10508800447D609AE05701631CF06541AC0FAC9811
:10509800E07B02C638E0CB02F4FF9E2FF15B299E2D
:1050A8001B9E1AFB9E275F5B0FF1454905CF300118
:1050B800020000009800910AF10C7FEF105F94AA9B
:1050C800DCF754BEFC568AE706C4FA87FA6EA7E7EF
:1050D800F76462EE3D79DE01000000000000000088
:1050E800E2FDDFF30DE49E299EFFA0739E7B9E7870
:1050F800A97C43FC2C7E2F84C55330BD80EA3980BF
:10510800FA9E17A8EFF901E37B7EC0F83F3F60FCE9
:105118009F1FE046DD7BEFBD4B0020DE73FF6F90E5
:105128007B869C3B74AE73CF93D31C1DA2FDED0D03
:105138000C60BCF161DCBBE7370063C3B8F7BF564E
:1051480003F946B91B0863AC106F2C37FADC33A39C
:105158008DFD849C378179FF806C00EF0098F50203
:10516800B26701DEF102661D40F61A807734E0A9C5
:10517800BCF75E797F09C0BAF7DE7BE5FD01000068
:10518800EADE7BEFBD2480B0EFBDF77224604400F7
:10519800E678CFDD1391338C77F1BEFF7BDF784360
:1051A800CD64CE28C09F791F484A0F9E372A3BF707
:1051B800BD5FBC61BD25EA5B90EFBE03E69E033C84
:1051C800AFFEDF818EFF4A18390750CE77EEAF3831
:1051D800FA09F57BA4FCDDDB1AA7584F8E04FE5CA8
:1051E800057FB1A21FD693191DDFBD1D2FF35711DF
:1051F800F52FE3DE7BEFBDF73E00C4B8F7DE7BEFAB
:105208001805A8F102DC7C00A37E001D1330EA0516
:10521800E898805133006FBC807C5600DA0F90CF3D
:105228009380FEDFF325F64AF1DCF08CB1EF79F2DA
:10523800F5D743FC0C17109EE8217EAEFC72DF53B5
:10524800FD90E032DFFADF3357FBE24BD135052022
:1052580062C51B625546C73CF7B4967BA6A8FD10ED
:10526800EFB9FF45EC19B25F9DCFB93B67557E6139
:105278001CFF9C30F2890944E517C62F753CE7EE00
:1052880027E47E229EBF29BF733E3180F6433CBB94
:105298009EC13DDFA81FE4F3FDC23C53987702008E
:1052A80030CF14CC3309E69D0000007E179869E4DE
:1052B80067D602982F58E74DA24F8FF717EF5DF585
:1052C800FB4F39C7FE0AB9C6FF2B44DF59BF3D1152
:1052D8007D3ADE1F58FF37D7BDF7DE7B5F00EBDE78
:1052E8007BEFBD2F8075EFBDF7DE17C03B01F99E40
:1052F8000EF87DCFBAEFC0F3FBCFB57F03D9B7EA7D
:10530800C3E85BF599BF3DD7FF377EEFB3EE9BE46B
:105318007B3A80B5EFF992B7877876C4CC7DCF1306
:1053280053BF43B413AB301D101D0FC47FFC12BE16
:10533800FC1EA89A0F1836B06E0100E6790000CC62
:10534800DFB9E7B700EAFF5688EA53A0BEB1F6BD59
:1053580077B76F20BFB17B60AC9B07EDA6FCDDF390
:10536800469CF1C8E74DB94BCC926B7B62F27AEF61
:105378005F701FFF2764CD89C99322291FD34098E6
:105388008713490A668A4BC049EC690D221ECFCCA7
:1053980030D6DF7EC2CF77BFC7FEFD73AA788D8E69
:1053A800E8DF1A4FFD19B5A675CED2E77C8137DE46
:1053B8005F056305907BD4EFDCBB3B01B9DF4AF1A5
:1053C800EC01C0BA0B80CF0760E4C802F8E2C40160
:1053D800C47AB22A8015C789097CF1A8FCC0180BC9
:1053E8004F0EF8F9E3E783E977EFDD169E00C4E492
:1053F800F8DD7BEFFDF9648D0235C6787C80D7EF48
:10540800B9F7DEFBFF06403EFF81BEF79E150D880B
:10541800F6003000F9F9D0F7DEFFD30BC02FD1F733
:10542800DEFBE50578560E001660AE78E87BEF7D6A
:10543800E30D20EA5B88DEF7FC26E45E43D4FBE15B
:1054480064ED7B7FE3999E51BF415D3FDB05634E71
:105458008F07787F4200008010001E0FF0FE6C1747
:10546800E45C9E51DFA08E8F93CFBEF7379E49EE46
:1054780095A2BE8FE7DE7BCF6F0244BD3BD0F7DE3F
:10548800DF181FA07655015C07A04C0099000C009E
:1054980019006502B40BE2D9A31EFADEF38DF101FF
:1054A80051EF0ECFBDF7DE7BEF0B007DEFBDF7BEF2
:1054B800000000007DEFBDF70700FADE7BEF0F006C
:1054C800000040DF7BEFBD3F009E7BEFBDF7DE05B0
:1054D800007DEFBDF72E00000080BEF7DEBB004068
:1054E800DF7BEF5D000000000000207ADFB317E4E7
:1054F8005E438CFEE164ED7BF7A8F68CF11B8C7F94
:105508004CDB0BE2FB490BA8C7320000F7DE7B63DC
:10551800190086C2BDB7F8F905C0A8FC175113DFFA
:1055280018BF7BCF2F9F10FBAD90CFF779EE029E6F
:10553800FB02000000000000007DEFBDF77E0000C8
:105548007DEFBDF77E00000000000000C0B82F000E
:1055580000000000F0DC0500000000000000000072
:105568002000E659F0178FB798D33366FCEE7D63B9
:105578000E6F0F51EFEBB90BF4FD00D6AA0FF074C4
:10558800FD00E3373E40FEC70920AE9BC0FDE79310
:1055980080A96B01C67F3D5DC0177EF925409C3808
:1055A80000468F17C0AAF900F8E297CF5D00000007
:1055B800000000000000000000000080BEF7DE7B55
:1055C8000700CFBD05B0EF0F0730064405F00954BA
:1055D8004C10AB066E7E60C519185F16FCF209C444
:1055E8008C83CA0F887A821313F09AA22A0218E3CE
:1055F80033E300F8F2F9B200CCE8FC00B032260040
:105608003E2BC0BA1FB0EEC353007803C0C81F803A
:10561800B79E02F0C61B00F9E60FC01A4F0138F119
:1056280002C8375F006BCC0DE04401C817006B80DF
:10563800B5EFF94D887F0F51EF0F5FD6BEF797D5BD
:10564800AAC66F503B66FCBD2066542AE02FA7000F
:10565800A603005300D34905FCE5DF0B6246558DD0
:10566800DFA0FE31C3376ADFFB1BD5C4EE21EAFD9C
:1056780011F7DE7BEFEE0030D60ED4BDF7EECA068A
:1056880018BF58003C11009E08C0F8A250F7DEBBB6
:105698009F6C805C3B51F7DEFBEF000000000000D0
:1056A800006BDFF39B10BB87A8F7876FD4BEF73773
:1056B800EA356AFC06F58F153F2F88196B58C076B6
:1056C80018C0120B00CB00961816B09D9F17C4B4D3
:1056D800468DDFA0FE31C3376ADFFB1BF512BB879F
:1056E8000809D6BEE73C7327C0D71900D619EBDEE8
:1056F8007BEFFF4D809C7BE0BBF7FE9FB880FC7280
:1057080004C03400A6018C2F2BF8EEBDFBC917A0EE
:1057180076E2BBF7E603A0E307F0D453006FBC00C2
:10572800F96663EE737783DF3BC258FF60D5D8F71D
:10573800FE9FFCF1D783FCF22125783FBE78BF2776
:10574800A887FC8FE73B7B81B1F7CCD1FF04E3FD51
:10575800EF275F9E82F18D8AF85E60114FFE06B9D1
:105768002AC36FD4BEF7DFF112FBAD90739775EFC4
:10577800BDF7DE7BEF028075EFBDF2DE7B17000020
:105788000000000000000000000000000000BC77DE
:1057980080715F000000000000000000000016C0DB
:1057A800B1418927D60AB15E5FB63EF774BC69FE7F
:1057B8009E10CF6F9AF705BC77CE588015CB8A021A
:1057C80015153E071C8791052A0B5F3C78E281C7B7
:1057D800C1F141D613E2A9042796157FE089BF7F5E
:1057E8004CC0AAAA05F079FD0146661680CF07EAE3
:1057F80036387FF0DD5151302207AC189E01452123
:10580800B3180A7B8C8D65B30DA2AA1EFC3D944D7E
:10581800F9ED282A06C6C38E51F16714540CABA8BB
:1058280052FEB0D588CBCE1C0ACABF144BED186007
:10583800CC5D418C3D1FA0F2D950951BF84714FC54
:10584800420125078C8881F89F04EFEDE87861CC48
:105858006CCF530FDA8B5FFCC2AC59888E8ECE06A4
:10586800B3E6176F006FD453802000AEA726B0C6EA
:10587800FCB203F2CDD6F1C11B2F4FD5C3ACA7F0B4
:10588800C62FB2E307F9C6AF6F037DFB8D1910333E
:105898003ADE68E86856AE24D798E8F8D1D1F0D453
:1058A800CC7CAA40EB5703E3796A0E408B06482369
:1058B800000000000000C0BDF7DE7BEFFD0320B84C
:1058C800F7DE7B6F698055AB00D5D58078F303F898
:1058D800C61B80AEB700CFAA05C85F7E00C709C047
:1058E8003B7A00627AEFBDF7DE3B00E0BDF7066069
:1058F800DF000000000000000000D837C0BC0566CB
:105908001C6055802F2618E303BE2C30E300AB0241
:105918007C31C1181FF06581157F106B05F8C7022F
:1059280095DFFFDE1FFC2F00000000000000FF0BCA
:10593800606F30C618F0667C887AE60A667C5F4C31
:10594800BECAAC4FE5E164DD7BEFBDF75E00F13F19
:10595800298EC3F819E2FDDFF386BC33C5FC7B460C
:10596800DF7B6AD4FA2FE218F2FDDFFB917B26E891
:1059780058FF7B3F964E304DAAB9DE7B7F83FA866F
:105988005C7FFB770100000000F23BE737E03E1147
:10599800F54FCCFF3D4F34BE145F14022A02300C81
:1059A800C03008A808BE21BE283CFB9E277EC47EC6
:1059B800226A07F23B772FE47EC2E88F37E6B97B8D
:1059C8003C1535DE306EE6E307E33F03400078FC24
:1059D80020D6881A1DC6D7CB1BEBDC5DB3E47EC28C
:1059E800785F80B83F00000080FCCEF91EC47D229D
:1059F8009E0FBF7CFEF7FFA0E24BF99251300803DF
:105A080010062063C1C0CA2FE48BCEE7DCFF83B841
:105A18004FC4B3E1F9DDF325D657E2B9217BEC7B1E
:105A28003B5F3F67B0C6E3F1BFF7DE91022022EE8D
:105A3800BDF7DE1B330A707C0FE37DD48AEFDE3DB1
:105A480093FE2AA2BE0573DF3FCF3B0CAEBE873064
:105A5800796E39F7013CB79CFB000000000000009C
:105A680090DF39BFF1FF89FB44D43FE9ACFFFD3F2C
:105A780058F14BF912F1C0800430009105034FFC36
:105A880052BE78B3FEF7FF20EE13517FC8EF9C1F7C
:105A980021BF625CDBACDFBD7BD454FF278CFE7971
:105AA8006F0000000060F4B9BB7056185F12BF7B2E
:105AB8009E78784BBC0E0F12000000000000E03901
:105AC800CF609E07CF7D00000000E629C03C055846
